:020000040800F2
:100000000000032095020008E1020008E102000858
:10001000E1020008E1020008E1020008000000001F
:10002000000000000000000000000000E1020008E5
:10003000E102000800000000E1020008E1020008FF
:10004000E1020008E1020008E1020008E102000804
:10005000E1020008E1020008E1020008E1020008F4
:10006000E1020008E1020008E1020008E1020008E4
:10007000E1020008E1020008E1020008E1020008D4
:10008000E1020008E1020008E1020008E1020008C4
:10009000E1020008E1020008E1020008E1020008B4
:1000A000E1020008E1020008E1020008E1020008A4
:1000B000E1020008E1020008E1020008E102000894
:1000C000E1020008E1020008E1020008E102000884
:1000D000E1020008E1020008E1020008E102000874
:1000E000E1020008E1020008E1020008E102000864
:1000F000E1020008E1020008E1020008E102000854
:10010000E1020008E1020008E1020008E102000843
:10011000E1020008E1020008E1020008E102000833
:10012000E1020008E1020008E1020008E102000823
:10013000E1020008E1020008E1020008E102000813
:10014000E1020008E1020008E1020008E102000803
:10015000E1020008E1020008E1020008E1020008F3
:10016000E1020008E1020008E1020008E1020008E3
:10017000E1020008E1020008E102000800000000BE
:10018000E1020008E1020008E1020008E1020008C3
:10019000E1020008E1020008E1020008E1020008B3
:0C01A000E1020008E1020008E102000892
:1001AC000348044B834202D0034B03B118477047FA
:1001BC000000002000000020000000000548064B55
:1001CC001B1AD90F01EBA301491002D0034B03B149
:1001DC0018477047000000200000002000000000BD
:1001EC0010B5064C237843B9FFF7DAFF044B13B173
:1001FC000448AFF300800123237010BD00000020E1
:10020C00000000002C03000808B5054B1BB1054984
:10021C000548AFF30080BDE80840FFF7CFBF00BF33
:10022C0000000000040000202C0300080021134BE8
:10023C00D3F8103813F4005F14D113F4805FF6D0A8
:10024C0001238B4003F47C530C4AC2F8183401315F
:10025C0011F0FF0110D0094BD3F8103813F4805F64
:10026C00F9D1E4E7FEE70133054A9342FBDD034B8A
:10027C00044AC3F81824EEE70023F5E70000024017
:10028C003F420F000000FCFFDFF830D00C480D4956
:10029C000D4A002302E0D458C4500433C4188C42D5
:1002AC00F9D30A4A0A4C002301E013600432A2423B
:1002BC00FBD300F011F8FFF7B9FF704700000320E3
:1002CC0000000020000000204C030008000000206B
:1002DC001C000020FEE7000070B50D4D0D4C641B9A
:1002EC00A4100026A64209D10B4D0C4C00F018F8B6
:1002FC00641BA4100026A64205D170BD55F8043B22
:10030C0098470136EEE755F8043B98470136F2E77B
:10031C004403000844030008440300084803000891
:10032C00F8B500BFF8BC08BC9E467047F8B500BFD6
:08033C00F8BC08BC9E467047A6
:040344001502000896
:04034800ED010008BB
:040000050800029558
:00000001FF
